:1000000019C033C032C031C030C02FC02EC02DC087
:100010002CC02BC02AC029C028C027C026C025C09C
:100020005DC023C022C021C020C01FC01EC01DC093
:100030001CC01BC011241FBECFEFD2E0DEBFCDBF5E
:1000400011E0A0E0B1E0E8EAF9E002C005900D920D
:10005000A834B107D9F721E0A8E4B1E001C01D92AE
:10006000A139B207E1F7B5D19DC400C01F920F922C
:100070000FB60F9211240F900FBE0F901F9018957E
:100080009093C5008093C40082E08093C00088E113
:100090008093C1008EE08093C20008959091C000CB
:1000A00095FFFCCF8093C60008958091C00087FF24
:1000B000FCCF8091C60008958091C00087FF08950D
:1000C0008091C600F9CFCF93DF93EC018991811124
:1000D00003C0DF91CF910895E1DFF8CF1F920F9217
:1000E0000FB60F9211240F931F932F933F934F93AB
:1000F0005F936F937F938F939F93AF93BF93EF9390
:10010000FF93CF93DF93CDB7DEB7A797DEBFCDBF09
:1001100080917A0084FF3AC03091000120914B0118
:10012000E22FF0E0EE0FFF1F323009F0D3C023E0E2
:1001300020930001EC58FE4F80918F019091900127
:1001400020813181821B930B9093900180938F01CA
:1001500020917800309179003183208320917800BC
:1001600030917900820F931F6AE070E041D1709363
:10017000900160938F01809100018F708064809363
:100180007C0080917A00806580937A0080914A019A
:10019000893C08F463C010924A0181E091E093DF4A
:1001A00086E091E090DF809190018F9380918F01A4
:1001B0008F938AE091E09F938F938E01075E1F4F8C
:1001C0001F930F9329D1C8017EDF80918B018F93FC
:1001D00080918A018F9385E191E09F938F931F9384
:1001E0000F931AD1C8016FDF809189018F9380919D
:1001F00088018F9380E291E09F938F931F930F93D9
:100200000BD1C80160DF809149018F938091480133
:100210008F938BE291E09F938F93085111091F9365
:100220000F93FAD0C8014FDF80918E011F928F93F8
:1002300080918D011F928F9380918C011F928F93DB
:1002400085E391E09F938F931F930F93E5D00FB6B3
:10025000F894DEBF0FBECDBFC80135DF80914801E5
:1002600090914901883E914061F4109249011092A9
:10027000480180918E018F5F8C3308F079C08093A4
:100280008E0180914A018F5F80934A0180914801DD
:100290009091490101969093490180934801A79656
:1002A0000FB6F894DEBF0FBECDBFDF91CF91FF91A7
:1002B000EF91BF91AF919F918F917F916F915F91DE
:1002C0004F913F912F911F910F910F900FBE0F9063
:1002D0001F901895333029F524E020930001E05A4F
:1002E000FE4F8081918120918A0130918B01820F94
:1002F000931F90938B0180938A0120917800309115
:100300007900318320832091780030917900820F29
:10031000931F6AE070E06CD070938B0160938A0148
:100320002ACF32E030930001E45BFE4F808191815F
:1003300090938901809388014091780050917900D1
:10034000518340834091780050917900840F951F2C
:100350006AE070E04DD070938901609388012F5F4F
:100360002A3018F420934B0106CF10924B0103CF93
:1003700010928E0180918D018F5F8C3318F48093E1
:100380008D017FCF10928D0180918C018F5F88311C
:1003900018F480938C0175CF10928C0172CF8DE090
:1003A00090E06EDE249A2C9A8CE087B98CE18093E1
:1003B0007E00809100018F70806480937C0084ECCB
:1003C00080937A0082E085BD81E080936E0078940E
:1003D0000895E5DF90E12FE936E881E021503040D3
:1003E0008040E1F700C0000085B1892785B9F3CFCF
:1003F000AA1BBB1B51E107C0AA1FBB1FA617B7074B
:1004000010F0A61BB70B881F991F5A95A9F7809566
:100410009095BC01CD010895AEE0B0E0E1E1F2E0DD
:1004200098C20D891E8986E08C831A8309838FEF19
:100430009FE79E838D83AE01475E5F4F6F89788D06
:10044000CE01019609D02F813885020F131FF801C4
:1004500010822E96E4E099C2ABE0B0E0E1E3F2E076
:100460006AC27C013B018A01FC01178216828381EA
:1004700081FFBAC1CE0101965C01F7019381F301BE
:1004800093FD859193FF81913F01882309F449C130
:10049000853239F493FD859193FF81913F01853237
:1004A00021F4B70190E0B9D1E8CF912C212C312C67
:1004B000FFE1F31538F08B3211F190F4803209F13D
:1004C000833229F137FC3CC020ED280F2A3050F54B
:1004D00036FE20C08AE0989E200D1124922E06C080
:1004E0008D3291F0803371F7689430F8F30193FD09
:1004F000859193FF81913F018111DACF21C06894EA
:1005000031F8689432F8F2CF689433F8EFCF6894FA
:1005100034F8ECCFEAE02E9E200D1124222E6894B0
:1005200035F8E4CF8E3229F436FCFBC0689436F8F7
:10053000DDCF8C3619F4689437F8D8CF8836B1F20D
:10054000982F9F7D95549330D8F0833691F183375F
:10055000B1F1833509F05EC02801F2E04F0E511C65
:10056000F801C080D180692D70E036FC02C06FEFC9
:100570007FEFC6013CD14C01689437F882010AC074
:100580000C5F1F4FFFE3F98388248394912C65014E
:10059000E89437F833FE2AC0522C8114910459F59F
:1005A000552009F46ACFB70180E290E036D15A9421
:1005B000F7CFF801808189830E5F1F4FE5CF2801B7
:1005C000F2E04F0E511CF801C080D180692D70E01F
:1005D00036FC02C06FEF7FEFC60114D14C018201DF
:1005E000D7CFB70180E290E018D12A9428141904DB
:1005F00009F0B8F7D1CFF60137FC859137FE81912C
:100600006F01B70190E009D151105A94F1E08F1AAF
:100610009108C3CF843619F0893609F073C0F80108
:1006200037FE67C060817181828193810C5F1F4FAB
:10063000F32DFF763F2E97FF09C09095809570951A
:1006400061957F4F8F4F9F4F689437F82AE030E0D5
:10065000A50113D1C82ECA188C2C432C36FE0CC011
:10066000E89440F8C91440F434FE05C032FC03C0DD
:10067000F32DFE7E4F2E892C44FE90C0FE01EC0D22
:10068000F11D8081803309F082C0242D297E422E05
:10069000842D8870582E43FC8FC040FE89C09C2C4E
:1006A000821418F42C0C922C981844FE8BC0B701BD
:1006B00080E390E0B2D042FE08C088E790E041FEBF
:1006C00002C088E590E0B701A8D0C91408F486C03C
:1006D000CA94D12C9FEFC91AD90ACA0CDB1CF601A7
:1006E00082916F01B70190E098D0AC14BD04B9F7C6
:1006F00057CF60817181072E000C880B990B0E5F1C
:100700001F4F96CFD32CE894D4F82AE030E08537F9
:1007100031F1232D297FD22E8F36F9F040F4883520
:10072000A1F0F701868197812B96E2E120C1803705
:1007300049F08837B1F7D4FE02C06894D2F820E1BE
:1007400030E00DC06894D4F8F6CF34FE03C0822F99
:100750008660D82E20E132E002C028E030E0F801C7
:10076000D7FE0EC060817181828193810C5F1F4F23
:10077000A50183D0C82ECA183D2CE89437F86CCF59
:100780006081718190E080E00E5F1F4FF1CF42FCED
:1007900002C083947DCF839483947ACF842D86780E
:1007A00009F476CFF6CFB70180E290E036D083949B
:1007B0008214C8F3512C79CF522C5818821408F4A3
:1007C00074CFF8CF842D867809F47FCF8BE241FE79
:1007D00080E247FC8DE2B70190E076CFB70180E37D
:1007E00090E01BD09A9471CF8FEF9FEF9DCFFC01CB
:1007F0000590615070400110D8F7809590958E0F4C
:100800009F1F0895FC016150704001900110D8F7BE
:10081000809590958E0F9F1F08950F931F93CF93F0
:10082000DF93182F092FEB018B8181FD09C01FEF8A
:100830000FEF812F902FDF91CF911F910F9108958E
:1008400082FF14C02E813F818C819D81281739073A
:100850003CF4E881F981CF01019699838883108364
:100860008E819F8101969F838E83E3CFE885F985F2
:10087000812F0995892BA1F3DACFFA01AA27283015
:1008800051F1203181F1E8946F936E7F6E5F7F4F5D
:100890008F4F9F4FAF4FB1E03ED0B4E03CD0670FD9
:1008A000781F891F9A1FA11D680F791F8A1F911D2C
:1008B000A11D6A0F711D811D911DA11D20D009F47C
:1008C00068943F912AE0269F11243019305D3193BE
:1008D000DEF6CF010895462F4770405D4193B3E0A7
:1008E0000FD0C9F7F6CF462F4F70405D4A3318F04E
:1008F000495D31FD4052419302D0A9F7EACFB4E0FF
:10090000A6959795879577956795BA95C9F70097B6
:100910006105710508959B01AC010A2E0694579557
:10092000479537952795BA95C9F7620F731F841FAE
:10093000951FA01D08952F923F924F925F926F9244
:100940007F928F929F92AF92BF92CF92DF92EF925F
:10095000FF920F931F93CF93DF93CDB7DEB7CA1BE0
:10096000DB0B0FB6F894DEBF0FBECDBF09942A880B
:10097000398848885F846E847D848C849B84AA84B3
:10098000B984C884DF80EE80FD800C811B81AA8140
:10099000B981CE0FD11D0FB6F894DEBF0FBECDBF0B
:0809A000ED010895F894FFCF6A
:1009A800021B5B324A001B5B480052203D20307816
:1009B80025780A0D0047203D20307825780A0D005B
:1009C80042203D20307825780A0D007365633A206F
:1009D80025640A0D000A52756E74696D653A202502
:0809E800643A25643A2564001D
:00000001FF
